:020000040800F2
:10000000601800202102000807190008F1120008FA
:10001000051900082B040008B51E000800000000A8
:10002000000000000000000000000000890100083E
:10003000A304000800000000CD010008511A0008C8
:100040003B0200083B0200083B0200083B0200089C
:100050003B0200083B0200083B0200083B0200088C
:100060003B0200083B0200083B0200083B0200087C
:100070003B0200083B0200083B0200083B0200086C
:100080003B0200083B0200083B0200083B0200085C
:100090003B0200083B0200083B0200083B0200084C
:1000A0003B0200083B0200083B0200083B0200083C
:1000B0003B0200083B0200083B0200083B0200082C
:1000C0003B0200083B0200083B0200083B0200081C
:1000D0003B0200083B0200083B0200083B0200080C
:1000E0003B0200083B0200083B02000800F002F857
:1000F00000F03AF80AA090E8000C82448344AAF188
:100100000107DA4501D100F02FF8AFF2090EBAE885
:100110000F0013F0010F18BFFB1A43F0010318473B
:10012000582F0000782F0000103A24BF78C878C1FB
:10013000FAD8520724BF30C830C144BF04680C60ED
:10014000704700000023002400250026103A28BF35
:1001500078C1FBD8520728BF30C148BF0B60704739
:100160001FB51FBD10B510BD00F01BF91146FFF7FC
:10017000F7FF01F0CBFE00F039F903B4FFF7F2FF0F
:1001800003BC00F041F90000224B19680868B0E890
:10019000F00F80F30988BFF36F8F4FF0000080F3FA
:1001A00011884EF00D0E70470000000006480068F0
:1001B000006880F3088862B661B6BFF34F8FBFF363
:1001C0006F8F00DF00BF00BF08ED00E0EFF3098094
:1001D000BFF36F8F0F4B1A6820E9F00F106008B55E
:1001E0004FF0500080F31188BFF34F8FBFF36F8F34
:1001F00002F0D6FA4FF0000080F31188BDE8084005
:1002000019680868B0E8F00F80F30988BFF36F8FB2
:10021000704700BF30000020EFF3058070470000FA
:100220000948804709480047FEE7FEE7FEE7FEE78A
:10023000FEE7FEE7FEE7FEE7FEE7FEE704480549C6
:10024000054A064B70470000C71A0008ED00000879
:10025000601200206018002060140020601400204C
:10026000032A40F2308010F0030C00F0158011F8E2
:10027000013BBCF1020F624498BF11F801CB00F8BA
:10028000013B38BF11F8013BA2F1040298BF00F80E
:1002900001CB38BF00F8013B11F0030300F02580CB
:1002A000083AC0F0088051F8043B083A51F804CBF2
:1002B000A0E80810F5E7121D5CBF51F8043B40F8B8
:1002C000043BAFF30080D20724BF11F8013B11F8C3
:1002D00001CB48BF11F8012B24BF00F8013B00F807
:1002E00001CB48BF00F8012B704710B5203AC0F091
:1002F0000B80B1E81850203AA0E81850B1E8185027
:10030000A0E81850BFF4F5AF5FEA027C24BFB1E863
:100310001850A0E8185044BF18C918C0BDE81040D4
:100320005FEA827C24BF51F8043B40F8043B08BFDD
:100330007047D20728BF31F8023B48BF11F8012BA4
:1003400028BF20F8023B48BF00F8012B70474FF050
:10035000000200B5134694469646203922BFA0E815
:100360000C50A0E80C50B1F12001BFF4F7AF090721
:1003700028BFA0E80C5048BF0CC05DF804EB890012
:1003800028BF40F8042B08BF704748BF20F8022B55
:1003900011F0804F18BF00F8012B7047704770476D
:1003A0007047754600F02CF8AE4605006946534686
:1003B00020F00700854618B020B5FFF73FFFBDE8E5
:1003C00020404FF000064FF000074FF000084FF0BC
:1003D000000B21F00701AC46ACE8C009ACE8C0094D
:1003E000ACE8C009ACE8C0098D46704710B50446BA
:1003F000AFF300802046BDE81040FFF7BEBE00000E
:10040000004870470012002001491820ABBEFEE7EB
:1004100026000200704710B5142001F085FA032170
:10042000BDE81040142001F007BBFEE72DE9F041C4
:100430000E46074615460421052000F026F88021C7
:100440000A2001F0F9FA002405E0395D092001F0E5
:1004500033FD641CE4B2B442F7D30321012001F060
:100460002BFDFF24052001F05FFA641E14F0FF0449
:1004700001D04007F6D5222001F056FA287021203D
:1004800001F052FA6870BDE8F08170B50C4605467F
:1004900001F04AFA20EA04012846BDE8704001F064
:1004A0000BBD704770B5044600F004F90546601CAA
:1004B00002D004480078044400F0FCF8401BA0423D
:1004C000FAD370BD200000202DE9F84FDFF8B89175
:1004D0000024A9F1040B23460F2709F1040AABF10C
:1004E000040EC9E00125A5402A40AA427DD1674EED
:1004F000D1F804C0ACEB0608B44532D014DCBCF132
:10050000030F3AD009DCBCF1000F2AD0BCF1010F77
:100510001CD0BCF1020F31D11DE0BCF1110F17D07E
:10052000BCF1120F2AD119E0B8F5881F19D006DCEA
:10053000B8F5803F15D0B8F5801F1FD111E0B8F590
:10054000001F0ED0B8F5041F18D10AE0CB6815E0E3
:10055000CB681B1D12E0CB6808330FE0CB680C336F
:100560000CE08B682BB1012B4FF0080303D04561E1
:1005700004E0042302E0056100E00023FF2A01D823
:10058000064601E000F104064FEA840501D9A5F111
:100590002005D6F8008007FA05FC28EA0C0803FAC3
:1005A00005F548EA0508C6F800804D68ED0062D5FB
:1005B000374DAE6946F00106AE61AD6924F0030621
:1005C00005F001050095334D06EB050CDCF80850ED
:1005D000A607360F07FA06F825EA0805DFF8B880FF
:1005E000404503D14FF0000817E044E0DFF8AC804D
:1005F000404502D14FF001080FE0DFF8A4804045EC
:1006000002D14FF0020808E0DFF89880404502D19F
:100610004FF0030801E04FF0040808FA06F848EA32
:100620000508CCF808804D68D9F80060ED024D4609
:1006300001D5164300E096432E604D68DAF800605D
:10064000AD02554601D5164300E096432E604D6835
:10065000DBF80060AD035D4601D5164300E096432C
:100660002E604D68DEF80060ED03754601D5164337
:1006700000E096432E60641C0D682A46E5407FF436
:1006800031AFBDE8F88F00000804014000001110F0
:10069000001002400000014000080140000C014031
:1006A00000100140001401400AB1016170470904C3
:1006B000FBE7000001488068704700002000002030
:1006C0000248816802781144816070472000002050
:1006D000074810B5016841F010010160032000F0E7
:1006E00063F80F2000F006F800F024F8002010BD99
:1006F0000020024070B50D4D04464FF47A71287801
:10070000B1FBF0F00A490968B1FBF0F000F033FCEE
:1007100048B9102C07D200222146501E00F024F8C0
:1007200000206C6070BD012070BD00002000002022
:100730002C0000200B4882B0816941F001018161E9
:10074000816901F001010091C16941F08051C161ED
:10075000C069002200F0805000900F21901E02B06E
:1007600000F002B800100240F0B40E4B1B680C46BB
:10077000C3F30223C3F10705042D00D90425191D75
:10078000072901D2002300E0DB1E012606FA05F14D
:10079000491E214099409E40761E16403143F0BCD0
:1007A00001F0A4BB0CED00E0064900F00702086868
:1007B0004FF6FF03184040EA0220034A1043086046
:1007C000704700000CED00E00000FA052DE9F0474D
:1007D0000F46050061D0434E306800F00700B84274
:1007E00009D2306820F0070038433060306800F0EC
:1007F0000700B84251D128683B4C810712D5400709
:1008000003D5606840F4E06060602878000703D595
:10081000606840F4605060606068A96820F0F00093
:10082000084360602878C00728D06868012810D085
:100830002168022810D0890700292EDA616821F08A
:10084000030101436160FFF735FF804641F28839BB
:100850000DE021688903EFE78901EDE7FFF72AFF43
:10086000A0EB0801494502D90320BDE8F087606884
:10087000696800F00C00B0EB810FEFD1306800F038
:100880000700B8420BD9306820F0070038433060C9
:10089000306800F00700B84201D00120E5E7287871
:1008A000400705D56068E96820F4E06008436060AF
:1008B0002878000706D56068296920F4605040EA6E
:1008C000C100606000F018F86168084AC1F30311C4
:1008D000515CC8400649086006480068FFF70AFFF7
:1008E0000020C2E70020024000100240463000080D
:1008F0002C000020240000200E4A51680E4801F010
:100900000C03042B11D0082B0FD10C48C1F38343E7
:10091000C903C05C0AD55168084AC1F34041921E20
:10092000515C054A5043B0FBF1F07047044948431D
:10093000704700000010024000127A0036300008B4
:1009400000093D002DE9F84F040070D02078C04D1B
:10095000C00749D06868C0F38100012807D06868E3
:10096000C0F38100022809D16868C00306D5286851
:10097000800339D560680028E7D035E06068B0F5BD
:10098000803F0BD010B1B0F5A02F11D0286820F413
:1009900080302860286820F4802002E0286840F435
:1009A00080302860606890B1FFF784FE06460AE058
:1009B000286840F480202860F0E700BFFFF77AFE47
:1009C000801B642873D828688003F7D50CE0FFF7F4
:1009D00071FE064605E000BFFFF76CFE801B642831
:1009E000F0D828688003F7D420789A4E80074FF01B
:1009F00001094FF0000839D5686810F00C0F07D0D6
:100A00006868C0F38100022809D16868C00306D471
:100A10002868800714D52069012808D110E02069D2
:100A2000B0B1C6F80090FFF745FE074605E00AE1C1
:100A3000FFF740FEC01B0228C4D828688007F7D5FE
:100A40002868616920F0F80040EAC10028600DE0E4
:100A5000C6F80080FFF72EFE074604E0FFF72AFEE7
:100A6000C01B022823D828688007F7D42078000705
:100A70002CD57948A169D9B1C0F80090FFF71AFECA
:100A8000074604E0FFF716FEC01B02280FD8686A6D
:100A90008007F7D571484FF4FA510068B0FBF1F0C8
:100AA000009000BF0098411E0091FAD20EE080E055
:100AB000C0F80080FFF7FEFD074604E0FFF7FAFDEF
:100AC000C01B022875D8686A8007F7D420784007D1
:100AD00060D5E8690027C00008D4E86940F080507C
:100AE000E861E869012700F0805000905C480168E7
:100AF000C90513D40168834641F480710160FFF792
:100B0000D9FD824606E000BFFFF7D4FDA0EB0A0046
:100B100064284ED8DBF80000C005F5D5E068012850
:100B20000AD008B1052813D0286A20F001002862F5
:100B3000286A20F0040002E0286A40F001002862E0
:100B4000E06841F2883B98B1FFF7B4FD82460BE0C4
:100B5000286A40F004002862EEE700BFFFF7AAFD14
:100B6000A0EB0A0159455AD8286A8007F6D50CE04F
:100B7000FFF7A0FD824605E0FFF79CFDA0EB0A0110
:100B800059454CD8286A8007F6D41FB1E86920F08F
:100B90008050E861E06988B36968C1F38101022986
:100BA00044D00228C6F8608004D0FFF783FD0446D5
:100BB00038E034E0FFF77EFD074604E0FFF77AFDFA
:100BC000C01B02282BD828688001F7D4206AB0F512
:100BD000803F05D16868A16820F400300843686050
:100BE000D4E908010843696821F474110843686076
:100BF000C6F86090FFF75EFD044606E025E000BF02
:100C0000FFF758FD001B022809D828688001F7D596
:100C10001BE000BFFFF74EFD001B022802D9032096
:100C2000BDE8F88F28688001F4D40EE00128F7D0E1
:100C30006868226A00F48031914204D1616A00F44C
:100C40007010884201D00120EAE70020E8E70000A8
:100C50000010024000004242800442422C0000206A
:100C60000070004070B5040009D0606A002540B1F2
:100C700025616561A56294F8510040B10CE0012046
:100C800070BD6068B0F5827FF4D0E561F2E784F86A
:100C90005050204600F040F8022084F851002068AF
:100CA000016821F040010160A088218900F4827070
:100CB00001F404410843A18901F400610843217C47
:100CC00001F002010843217D01F001010843218B5D
:100CD00001F400710843217F01F03801084394F8C2
:100CE000201001F080010843218D01F400510843D8
:100CF00021680860A069042101EA10402168486069
:100D00002068C16921F40061C1616565012084F832
:100D10005100002070BD000030B585B00024009463
:100D200001940294039400681449884223D1144822
:100D3000816941F480518161816901F4805104919C
:100D4000816941F00401816180690E4D00F0040069
:100D50000490A02000900220019003200390694697
:100D60002846FFF7B1FB4020CDE90004694628463C
:100D70000294FFF7A9FB05B030BD00000030014030
:100D800000100240000801402DE9FF4F81B00446E9
:100D900090F8500000260E9F1D4693464FF0010923
:100DA00001280FD04FF0010A84F850A0FFF782FC11
:100DB000804694F85100616801280DD0B1F5827F1A
:100DC00008D103E0022005B0BDE8F08FA16809B9A1
:100DD000042801D00226C9E00298002865D0BBF1A2
:100DE000000FFBD0002DF9D094F85100042802D058
:100DF000052084F8510000206065C4F838B0E5870C
:100E0000A58702992163E586A58620646064206831
:100E10000168490603D4016841F040010160E068BF
:100E2000B0F5006F606803D0F0B3012D47D081E0CA
:100E300008B1012D3CD1206B21680088C860206B6F
:100E4000801C2063E08E401EE08631E020688168CF
:100E500089070FD5E18E69B1B9F1010F0AD1216B74
:100E60000988C160206B801C2063E08E401EE086F4
:100E70004FF0000920688168C9070CD0E18F51B19B
:100E8000C068A16B0880A06B801CA063E08F401E2F
:100E9000E0874FF00109FFF70DFCA0EB0800B84216
:100EA00006D3781C04D001E009E05BE003265BE098
:100EB000E08E0028CAD1E08F0028C7D140E0206B27
:100EC000216800780873206B401C2063E08E401E70
:100ED000E0862FE02068816889070FD5E18E69B12F
:100EE000B9F1010F0AD1216B09780173206B401C05
:100EF0002063E08E401EE0864FF000092068816884
:100F0000C9070CD0E18F51B1C068A16B0870A06B0C
:100F1000401CA063E08F401EE0874FF00109FFF7FF
:100F2000C9FBA0EB0800B84202D3781C02D0BAE794
:100F3000002FB8D0E08E0028CCD1E08F0028C9D196
:100F400042463946204600F00BFD18B1012620200C
:100F500060650BE0A06818B92068C16880680090DF
:100F6000606D08B1012601E084F851A0002084F8EA
:100F70005000304627E710B5401EB0F1807F01D306
:100F8000012010BD4FF0E02460610F21601700F0D8
:100F9000ADFF0020A06107202061002010BD0000EF
:100FA00070B590F83C20012A26D0012480F83C40FE
:100FB000022280F83D2003685A689D6822F070067E
:100FC0000A6832435A600D4B02689A4208D0B2F167
:100FD000804F05D00A4B9A4202D00A4B9A4204D164
:100FE000496825F080031943916080F83D40002155
:100FF00080F83C10084670BD022070BD002C0140F6
:10100000000400400008004010B5040003D094F82C
:101010003D0010B107E0012010BD002084F83C0025
:10102000204600F01FF8022084F83D00211D2068B2
:1010300000F04AFD012084F8460084F83E0084F860
:101040003F0084F8400084F8410084F8420084F8AE
:10105000430084F8440084F8450084F83D000020F3
:1010600010BD000008B501680B48B1F1804F0BD0EE
:101070000A4A914207D1C16941F00401C161C069C6
:1010800000F00400009008BDC16941F00101C16198
:10109000C06900F00100F5E70010024000080040C0
:1010A00070B5044690F83C000025012817D00126B1
:1010B00084F83C60022084F83D002068826822F0B9
:1010C000770222F47F4282600868502838D00DDC15
:1010D00020284FD005DC90B3102811D14AE002201F
:1010E00070BD302846D040280AD13BE060282FD080
:1010F00070280DD0B0F5805F03D0B0F5005F12D03E
:10110000012584F83D60002084F83C00284670BD2D
:10111000CB68D1E90121206800F00CFD20688168CE
:1011200041F0770109E0CB68D1E90121206800F0A6
:1011300001FD2068816841F480418160E1E719E0A8
:10114000CA684968206800F0A9FD5021206806E0BF
:10115000CA684968206800F0B2FD6021206800F08C
:10116000F3FCCEE7CA684968206800F097FD40218B
:101170002068F4E7226801461046F0E700B585B024
:101180000021009101910291039100680B4988426E
:1011900011D10B48816941F008018161806969467C
:1011A00000F008000490402000900220019003907D
:1011B0000448FFF789F905B000BD000000080040B1
:1011C00000100240000C014070B5044690F83C004D
:1011D00000260D4601280FD0012084F83C006AB19A
:1011E000042A1DD0082A2FD00C2A3FD00126002027
:1011F00084F83C00304670BD022070BD206800F0CD
:10120000ABFC2068816941F0080181612068816937
:1012100021F004018161206881692A69114311E08C
:10122000206800F0C1FC2068816941F4006181619F
:101230002068816921F480618161206881692A695F
:1012400041EA02218161D2E7206800F0D9FC2068E0
:10125000C16941F00801C1612068C16921F0040140
:10126000C1612068C1692A69114311E0206800F05A
:10127000F3FC2068C16941F40061C1612068C16963
:1012800021F48061C1612068C1692A6941EA0221B3
:10129000C161ACE710B5040003D094F83D0010B173
:1012A00007E0012010BD002084F83C00204600F03B
:1012B0001EF8022084F83D00211D206800F004FC87
:1012C000012084F8460084F83E0084F83F0084F84A
:1012D000400084F8410084F8420084F8430084F818
:1012E000440084F8450084F83D00002010BD70479C
:1012F000FEE710B50021012000F09EF8BDE8104087
:101300000120FFF7CFB8000070B50122094D54034A
:1013100021462846FFF7C8F90120FFF7C3F800224D
:1013200021462846FFF7C0F9BDE870400120FFF7CD
:10133000B9B80000000C014031B1012906D00229E2
:1013400006D0032907D105E0002204E0402202E094
:10135000142200E054221044C0B240F0800000216A
:1013600000F06AB810B5002000F042F80120FFF745
:1013700099F8164C00224FF480512046FFF794F95B
:10138000002261142046FFF78FF9032000F030F8A7
:10139000FFF7BAFF0120FFF785F8022000F028F8D8
:1013A000FFF7B2FF0120FFF77DF80021282000F0B1
:1013B00043F800210C2000F03FF8FFF79AFF0021CE
:1013C000BDE81040062000F037B80000000C0140D6
:1013D000012100F031B8000010B5044603E000BF61
:1013E000FFF7F6FF641C20780028F9D110BD00003B
:1013F00070B50F4D044600F001024FF480412846BD
:10140000FFF752F9C4F340024FF400412846FFF7BA
:101410004BF9A915074DC4F380022846FFF744F99C
:10142000C4F3C00269152846BDE87040FFF73CB917
:10143000000C01400008014010B504460A484FF472
:10144000805379B101221946FFF72EF92009FFF7E1
:10145000CFFFFFF759FF2046FFF7CAFFBDE8104056
:10146000FFF752BF0022EEE7000C01407CB50446B6
:10147000002529460D2000F01FFD9320207020201C
:10148000607001A823460090022219460C2000F04B
:1014900076F8010009D1225C401C5540C0B20428F6
:1014A000F9D3205CA84200D0022108467CBD70B56B
:1014B00005460146262000F047F8040003D12846DF
:1014C000FFF7D4FF044600F002F8204670BD0EB5C9
:1014D00050208DF8040000208DF805000DF1060263
:1014E000022101A8FEF7A2FF02A801AB009004228E
:1014F00019460C2000F043F80EBD000010B5012283
:1015000010211048FFF7D0F800F035F88D212A207F
:1015100000F0D2FC3E212B2000F0CEFC1E212D201D
:1015200000F0CAFC00212C2000F0C6FC4021152050
:1015300000F0C2FC3D21112000F0BEFCBDE81040CF
:10154000FEF769BF000801407CB50C46054607213F
:101550000D2000F0B1FC257001A823460090012267
:1015600019460C2000F00BF818B9BDF8041010292A
:1015700000D002207CBD0F21012000F09DBC2DE990
:10158000FF5F00270226DDF838A015468B4681460E
:10159000B8460C2805D0B9F10E0F05D1122710203E
:1015A00001E077273020804647F08001022000F0DC
:1015B00083FC80210420FEF768FF80210A2000F0D0
:1015C0003BFA0021012000F077FC002406E01BF824
:1015D0000410092000F070FC641CA4B2AC42F6D3E5
:1015E0004946012000F068FCB9F10C0F03D18021BD
:1015F0000D2000F021FA4FF4FA65042000F094F970
:101600006D1E2D0404462D0C04D0E00702D114EA0F
:10161000080FF2D080210D20FEF737FF35B10620EC
:1016200000F082F910F01B0F04D0022604B03046FF
:10163000BDE8F09F00263C40E00700D00126B9F14C
:101640000C0FF3D10A2000F06FF904460C2000F0D3
:101650006BF910F007004FEAC40104D008390844C0
:10166000AAF8000001E0AAF8001024B1102C04D957
:101670001024002503E00124FBE7002506E00920F3
:1016800000F052F9039948556D1CADB2A542F6D34E
:10169000CCE700002DE9F04385B0002645480096D0
:1016A000019602960396816941F02001816181696A
:1016B00001F020010491816941F004018161816997
:1016C00001F004010491816941F00801816181699F
:1016D00001F008010491816941F010018161806984
:1016E000DFF8D49000F01000049000224FF4447111
:1016F0004846FEF7D9FFDFF8C48000224FF203010D
:101700004046FEF7D1FF01241020CDE90004022558
:1017100069464846CDE90245FEF7D6FE4FF44070D3
:10172000CDE9000469464846CDE90245FEF7CCFE06
:101730000327CDE9007469464046CDE90245FEF72E
:10174000C3FEF801CDE90004CDE9024769464046F1
:10175000FEF7BAFE4FF47840CDE9000469464046F2
:10176000CDE90245FEF7B0FE600303958DE8510018
:10177000134F69463846FEF7A7FE4FF4C060CDE927
:101780000006694602944046FEF79EFE4FF4404034
:10179000CDE90006694602943846FEF795FE0F2013
:1017A000CDE90004694603954846FEF78DFE05B075
:1017B000BDE8F0830010024000080140000C014029
:1017C000001001400F4810B50D4901604FF48271BF
:1017D000416000218160C1604FF400720161C0E985
:1017E00005121022C0E90721416281620A21C1620B
:1017F000FFF738FA002801D072B6FEE710BD0000EE
:1018000000300140A000002010B586B0002416482A
:10181000009401940294039404944FF08041059441
:10182000C0E900144FF6FF71C0E902410461846110
:10183000FFF7EAFB08B172B6FEE74FF48050009064
:1018400069460948FFF72CFC08B172B6FEE704941C
:1018500004A905480594FFF7A3FB002801D072B640
:10186000FEE706B010BD0000F800002010B58EB0F5
:1018700000240794089409940A940B941C21684648
:101880000C94FEF764FD1E481C49C0E900144FF695
:10189000FF71C0E9024104618461FFF7B5FB08B143
:1018A00072B6FEE74FF48050079007A91448FFF77F
:1018B000F7FB08B172B6FEE71148FFF7EBFC08B181
:1018C00072B6FEE70B940BA90D480C94FFF768FB6A
:1018D00008B172B6FEE76020CDE900040294002250
:1018E000694607480494FFF76FFC08B172B6FEE73B
:1018F0000348FFF743FC0EB010BD00000008004095
:1019000040010020FEE7FEE701B582B064200090B0
:10191000012301AA02A90348FFF736FA9DF8040043
:101920000EBD0000A000002070B50C4D0446002242
:1019300010212846FEF7B8FE7E2000EA440040F061
:101940008000FFF7E1FF0020FFF7DEFF04460122E1
:1019500010212846FEF7A8FE204670BD0008014071
:1019600038B50B46009204460022802100F008F8AA
:10197000002804D0606D40F020006065032038BD71
:101980002DE9F8431E46914688460446089DFEF719
:1019900091FE401B351AFEF78DFE0746254800686C
:1019A000C0F3CB30684338E0701C37D0FEF782FEBE
:1019B000C01BA84203D215B1009860B32CE0206888
:1019C000416821F0E00141606068B0F5827F0BD191
:1019D000A068B0F5004F02D0B0F5806F04D1206848
:1019E000016821F040010160A06AB0F5005F09D1F3
:1019F0002068016821F4005101602068016841F409
:101A000000510160012084F85100002084F850004A
:101A10000320BDE8F8830025401E009020688168FF
:101A200038EA010004D000214945BDD10020F0E78B
:101A30000121F9E72C00002070B50C460546FFF7A0
:101A400073FF40EA04012846BDE8704000F034BA54
:101A500010B5FEF735FE01F055F9012803D0BDE8B9
:101A6000104000F01FBF10BD30B58FB02821684670
:101A7000FEF76DFC14210AA8FEF769FC0121080499
:101A8000CDE900100024029402250491CDE907500D
:101A90004FF4E01009906846FEF754FF08B172B6A3
:101AA000FEE70F20CDE90A054FF48060CDE90C4038
:101AB00002210AA80E94FEF789FE002801D072B612
:101AC000FEE70FB030BD7047F0B50268164B174CFB
:101AD000174D4FF08047984205D0B84203D0A0423E
:101AE00001D0A84203D122F070064A6832439842DE
:101AF00005D0B84203D0A04201D0A84203D122F4BD
:101B00004074CA6822434C6922F08002224302607A
:101B10008A68C2620A688262984201D109690163D7
:101B200001214161F0BD0000002C01400004004093
:101B30000008004010B5846842EA032224F47F4480
:101B40000A432243826010BD826822F070020A4379
:101B500042F007018160704730B5036A026A22F0E3
:101B6000010202624268846924F073050C682C4308
:101B700023F002058B682B430A4DA8420BD123F0BA
:101B80000805CB6822F440722B434D6923F004030F
:101B900015438A692A43426084614968416303624C
:101BA00030BD0000002C014030B5026A036A23F00A
:101BB00010030362436884690D6824F4E64444EA30
:101BC00005248D6822F0200242EA05120B4DA8423E
:101BD0000ED1CD6822F0800242EA05124D6923F44D
:101BE000406343EA85038D6922F0400243EA85039E
:101BF0004360846149688163026230BD002C01400A
:101C000030B5036A026A22F4807202624268C469D3
:101C100023F4007324F073050C682C438D6843EAA9
:101C200005230C4DA8420ED1CD6823F4006343EA8E
:101C300005234D6922F4405242EA05128D6923F4CE
:101C4000806342EA05124260C4614968C16303626D
:101C500030BD0000002C014030B5046A026A22F455
:101C6000805202624268C3690D6823F4E64343EA86
:101C700005238D6824F4005444EA0534064DA84237
:101C800004D14D6922F4804242EA85124260C36168
:101C900049680164046230BD002C014010B5036A3C
:101CA000046A24F001040462846924F0F00444EA24
:101CB000021423F00A020A438461026210BD10B5C7
:101CC000036A046A24F010040462846923F0A00308
:101CD00024F4704444EA023243EA01118261016251
:101CE00010BD00001CB54FA0504C01680079DFF812
:101CF00044A1C4F805104E4E60724FF0010BAAF1DA
:101D000002054FF0FF374B493A46491E306800F054
:101D1000F7FE68780028454811D0FFF7C8FB464811
:101D200000233A464149006800F03AFE43484149E1
:101D300000233A46891E006800F032FEE3E7FFF711
:101D4000B6FB08B100206AE02278607982423AD17D
:101D50006078A179884236D1A078E179884232D181
:101D6000E078217A88422ED12079617A88422AD17E
:101D700002202870FEF79EFCA968401AB0F57A7F11
:101D800011D90098401CC0B200900A2808D32949F4
:101D900085F801B000233A46491E306800F000FE85
:101DA000FEF788FCA8602878022801D00128BDD160
:101DB0009AF80100401CC0B28AF801000428B5D985
:101DC0008AF801B0B2E7637894F8029094F803E0DF
:101DD00021790020CDF8041000EB8001214491F816
:101DE0000AC0624513D191F80BC063450FD191F839
:101DF0000C80C1450BD191F80D80C64507D1897B78
:101E0000DDF804C08C4502D185F800B0D0E7401C55
:101E1000C0B21428E0D328780128C9D00320287044
:101E200084E70000E39B33256E0000009011002042
:101E300018000020920000201C0000201400002048
:101E4000FEE70000114D124F124E4FF0FF342246B4
:101E50000F49286800F054FE01280BD138784FF064
:101E6000020102280DD00120FFF766FA0AA000BF88
:101E7000FFF7B2FA06492246491C306800F040FEDE
:101E8000E5E70020FFF758FA06A0F1E7140000206C
:101E90009C000020180000204361726420736C6174
:101EA0007665720043617264204D417374657200FF
:101EB000FEE7FEE7FEE7000070B50B4D0E46044658
:101EC000002210212846FEF7EFFB7E2000EA4400A6
:101ED000FFF71AFD3046FFF717FD2846BDE87040B2
:101EE00001221021FEF7E0BB000801400907090E9E
:101EF000002804DB00F1E02080F80014704700F0B7
:101F00000F0000F1E02080F8141D7047A0B0FEF72C
:101F1000DFFBFFF7A9FDFFF7BDFBFFF775FCFFF740
:101F2000A5FCFFF74FFCFFF7E9FAFFF71BFA2B4D73
:101F3000D5E90001CDE91901002119A800F05DF8EB
:101F4000274C6061D5E90201CDE91B0100211BA8E6
:101F500000F053F8A061D5E90401CDE91D0100218D
:101F60001DA800F04AF8E061142205F11801684646
:101F7000FEF7BBF90021684600F043F82060142208
:101F800005F12C0105A8FEF7B0F9002105A800F025
:101F900038F86060142205F140010AA8FEF7A5F99F
:101FA00000210AA800F02DF8A060142205F15401C8
:101FB0000FA8FEF79AF900210FA800F022F8E060C0
:101FC000142205F1680114A8FEF78FF9002114A866
:101FD00000F017F8206100F00BF8FEE7B82F0008BA
:101FE0000000002001460020842900D0C81C704752
:101FF00010B500F099FB002010BD03C8002200F0CE
:1020000067BC3EB504460D46B0F90800FFF7EAFF8D
:1020100002A9CDE90001208A2B4682B2D4E9001042
:1020200000F044FE012801D000203EBD02983EBDD4
:102030002DE9F041184C0F46054666692068001DE1
:1020400000F092FA38B9206890F82C1001208840EE
:10205000A1698143A161681C07D137B12168BDE83E
:10206000F0410E48091D00F0B8BA20683544B54269
:102070004560216805D2A068BDE8F041091D00F067
:1020800094BA6068091D00F090FA206B854200D276
:102090002563BDE8F08100003000002064020020CC
:1020A0002DE9F041054600F0A5FA2E4C2069401CB0
:1020B000206120682C4F10B1E06940B32DE025600D
:1020C0002069012829D1002606EB860007EB800055
:1020D00000F05DFA761C072EF6D323488C3000F012
:1020E00056FA2148A03000F052FA1F48B43000F0F0
:1020F0004EFA1D48C83000F04AFA1B48DC3000F0A8
:1021000046FA19488C3060601430A06005E0206801
:10211000E96AC06A884200D82560E06A401CE06233
:10212000E96A0120A26988401043A06101EB8100A7
:1021300007EB8000291D00F050FA00F07BFAE069FF
:1021400000280CD02068E96AC06A884207D2074993
:102150004FF080500860BFF34F8FBFF36F8FBDE823
:10216000F0810000300000208801002004ED00E034
:1021700030B4026C0B46002A0BD0C1681144C16018
:102180004468A14201D30168C16030BC1846FEF723
:1021900067B830BC70472DE9F041856B174604469F
:1021A0000026026C82B1C7B1E068FEF759F8E16819
:1021B000206C091AE1602268914202D26168081A13
:1021C000E060022F16D017E02068A8B9606800F020
:1021D0000BFE0646002060600EE0A068FEF740F8A7
:1021E000216CA0680844A0606168884204D320681C
:1021F000A06001E005B16D1E6D1CA5633046BDE811
:10220000F08110B50446006B00F028FA2046BDE8C6
:10221000104000F023BA00000F4840F61871420742
:1022200005D0C01D0C4A20F00700821A891A0B4AFB
:1022300000230144C2E900030839103A21F00701E4
:1022400011604B600B600B1AC0E9001393604FF0F4
:1022500000405360D0607047780200207C0000206E
:10226000144E154CA6F1C8074FF08058DFF84C907B
:1022700012E000BF00F0BEF9F068C568281D00F04C
:1022800073F92069401E2061E068401EE06000F0A4
:10229000D1F92846FFF7B5FFE0680028EAD1386891
:1022A0000128F9D9C9F80080BFF34F8FBFF36F8FB2
:1022B000F2E70000500200203000002004ED00E0B2
:1022C0002DE9F0479A46DDE9098481466FF0030362
:1022D000206B03EB82021044089D20F00706700774
:1022E00007D0502080F31188BFF34F8FBFF36F8F5B
:1022F000FEE723180A5C83F834200A5C12B1401C04
:102300001028F6D3002784F84370072D00D3062544
:10231000E562C4E91157201D00F044F904F11800EA
:1023200000F040F92461C5F107006462A061E76430
:1023300084F8507052464946304600F003F9206058
:10234000B8F1000F01D0C8F80040BDE8F0870000E8
:1023500030B5114900E011460A688242FBD34B6850
:102360005C18844203D140681844486008464368BA
:102370001C18944209D1084C103C2468A24209D090
:1023800052681A4442600A6812680260814200D0B2
:10239000086030BD0460F9E77C00002010B50446F9
:1023A00000F028F9A06B28B15FF0000400F042F9BA
:1023B000204610BD0124F9E706484168096829B1A3
:1023C0004168C968C9684968016370474FF0FF31C7
:1023D000FAE700003000002008484068401C4FF039
:1023E000500080F3118804D0BFF34F8FBFF36F8F7D
:1023F000FEE7BFF34F8FBFF36F8FFEE7840000202F
:102400002DE9F041044600F0F5F894F9455004F147
:10241000240609E0606A48B1304600F031FD08B199
:1024200000F064F96D1E6DB2002DF3DC4FF0FF3645
:1024300084F8456000F0FEF800F0DCF894F94450B0
:1024400004F1100709E0206948B1384600F018FD92
:1024500008B100F04BF96D1E6DB2002DF3DC84F86D
:102460004460BDE8F04100F0E5B800002DE9F0411E
:102470000546002700F08CF9314E306808B9FFF7A7
:10248000CBFEF06805424BD1C5B3083568070ED0C6
:1024900005F00700C0F108000544680707D0502088
:1024A00080F31188BFF34F8FBFF36F8FFEE72DB31B
:1024B0007068854234D82248103001460C6801E02B
:1024C00020460C466168A94202D221680029F7D152
:1024D00031688C4224D00768216801606068083741
:1024E000411B10290FD96019420708D0502080F3F2
:1024F0001188BFF34F8FBFF36F8FFEE710E041608D
:102500006560FFF725FF61687068401A7060B26807
:10251000904200D2B060F06801430020C4E900019D
:1025200000F0E8FC780707D0502080F31188BFF353
:102530004F8FBFF36F8FFEE73846BDE8F081000094
:102540006C00002010B5031F4FF080741C601B1F2F
:1025500021F001011960191F024B0B60143940383A
:102560000A6010BDD9230008D0E9013201699A60E0
:10257000D0E901235A604A68824201D182684A60E8
:10258000002202610868401E08600868704700F178
:1025900008014FF0FF32C0E90112C1600161002162
:1025A0000160704700210161704730B50B685A1C0B
:1025B00002D000F1080202E0026904E022465468F9
:1025C00025689D42FAD953684B6099608A605160D2
:1025D00008610168491C016030BD42684A60936827
:1025E0008B6093685960916008610168491C0160C3
:1025F00070470000502080F31188BFF34F8FBFF366
:102600006F8F0A494868401C486001280CD108486F
:10261000006810F0FF0F07D0502080F31188BFF33F
:102620004F8FBFF36F8FFEE77047000084000020DC
:1026300004ED00E00849486828B1401E486001D117
:1026400080F311887047502080F31188BFF34F8FBB
:10265000BFF36F8FFEE700008400002070B50028F4
:1026600027D0144DA0F108046168E868014207D141
:10267000502080F31188BFF34F8FBFF36F8FFEE7B9
:1026800022683AB1502080F31188BFF34F8FBFF317
:102690006F8FFEE78143616000F07AF860686968D7
:1026A000084468602046FFF753FEBDE8704000F024
:1026B00021BC70BD6C0000204FF0E02000210161C2
:1026C000816105494FF47A720968B1FBF2F1491E44
:1026D00041610721016170472C00002002498A6A8C
:1026E00002604969416070473000002001490120C3
:1026F000486270473000002010B50C4650B10949BF
:1027000009681831FFF751FF2046BDE8104001214C
:10271000FFF78EBC502080F31188BFF34F8FBFF3BB
:102720006F8FFEE7300000201CB515480024CDE96E
:1027300000402346802213A1144800F0B7FA012874
:1027400009D0401C1AD1502080F31188BFF34F8F5D
:10275000BFF36F8FFEE7502080F31188BFF34F8FD8
:10276000BFF36F8F06484FF0FF313438016301210A
:10277000C1614461BDE81C4000F040B81CBD0000D0
:102780006400002049444C4500000000612200081C
:102790000248816B491C81637047000030000020B3
:1027A0001448816B11B101214162704700214162DF
:1027B0008169B1FA81F1C1F11F0101EB81020E497A
:1027C00051F822306BB101EB820101F108034A6834
:1027D00052684A609A4201D152684A60D1680160E9
:1027E0007047502080F31188BFF34F8FBFF36F8F76
:1027F000FEE7000030000020880100201CB52649BB
:1028000008780190FF20087008788DF800009DF886
:1028100000009DF8002000F0F000904207D050200A
:1028200080F31188BFF34F8FBFF36F8FFEE79DF8E2
:1028300000001A4B00F0500018700720986005E067
:102840009DF8002052008DF80020401E9DF80020C9
:102850001206F5D49860032807D0502080F3118821
:10286000BFF34F8FBFF36F8FFEE74FF44070986058
:10287000019808700A48016841F47001016001681C
:1028800041F070410160FFF717FF00205860FDF72D
:102890008DFC00201CBD000000E400E0840000204E
:1028A00020ED00E010B5502080F31188BFF34F8F6A
:1028B000BFF36F8F00F034FA18B104494FF0805025
:1028C0000860002080F3118810BD000004ED00E0D6
:1028D00070B50E46050013D0D6B105FB06F04830A2
:1028E000FFF7C4FD040009D004F1480120468EB171
:1028F0000160C0E90F56012100F00EF8204670BDBE
:10290000502080F31188BFF34F8FBFF36F8FFEE726
:102910000020E4E70060ECE770B50D46040025D028
:10292000FFF768FED4E90F20216802FB0011616007
:102930000021A1632168A1600A46D4E90F01401E6D
:1029400000FB0121E16021464FF0FF3001F8440F08
:10295000487004F110008DB1FFF719FE04F1240056
:10296000FFF715FEFFF766FE012070BD502080F3D3
:102970001188BFF34F8FBFF36F8FFEE721690029E6
:10298000F0D000F07DFA0028ECD004494FF08050E0
:102990000860BFF34F8FBFF36F8FE3E704ED00E0F4
:1029A0002DE9FF4782B01D468A464FF0000804001B
:1029B00003D0BAF1000F08D011E0502080F3118845
:1029C000BFF34F8FBFF36F8FFEE7206C38B15020FD
:1029D00080F31188BFF34F8FBFF36F8FFEE7022D97
:1029E0000AD1E06B012807D0502080F31188BFF393
:1029F0004F8FBFF36F8FFEE700F084F93F4F4FF02A
:102A000000094FF0805648B9049838B1502080F33F
:102A10001188BFF34F8FBFF36F8FFEE7FFF7EAFD1B
:102A2000A06BE16B884207D3022D05D00498D0B18A
:102A3000B8F1000F1AD01EE02A4651462046FFF793
:102A4000AAFB616A19B104F1240000F019FA20B15F
:102A50003E60BFF34F8FBFF36F8FFFF7EBFD012099
:102A600006B0BDE8F087FFF7E5FD22E06846FFF716
:102A700035FE4FF00108FFF7DDFDFFF789FEFFF798
:102A8000B9FD94F94400401C01D184F8449094F9B4
:102A90004500401C01D184F84590FFF7CBFD04A907
:102AA000684600F0C9F830B12046FFF7A9FC00F0F5
:102AB00021FA0020D4E7FFF79DFDA06BE16B88426F
:102AC00013D1FFF7B7FD04F110000499FFF714FECE
:102AD0002046FFF795FC00F00DFA00289ED13E60DD
:102AE000BFF34F8FBFF36F8F98E7FFF7A3FD20462B
:102AF000FFF786FC00F0FEF990E7000004ED00E02F
:102B00002DE9F747002683B08A46040003D0BAF1C6
:102B1000000F08D011E0502080F31188BFF34F8FD1
:102B2000BFF36F8FFEE7206C38B1502080F311881F
:102B3000BFF34F8FBFF36F8FFEE700F0E3F8DFF8CE
:102B4000F4804FF000094FF0805748B9059838B12C
:102B5000502080F31188BFF34F8FBFF36F8FFEE7D4
:102B6000FFF748FDA56BC5B151462046FFF700FBB6
:102B70006D1EA563206950B104F1100000F080F9CA
:102B800028B1C8F80070BFF34F8FBFF36F8FFFF706
:102B900051FD012006B0BDE8F087059808B11EB1CF
:102BA00006E0FFF747FD27E06846FFF797FD01269F
:102BB000FFF740FDFFF7ECFDFFF71CFD94F9440023
:102BC000401C01D184F8449094F94500401C01D187
:102BD00084F84590FFF72EFD05A9684600F02CF813
:102BE000002820460AD0FFF70BFC00F083F92046AE
:102BF000FFF7D4FB0028B3D00020CBE7FFF7CEFBD4
:102C000090B104F124000599FFF776FD2046FFF707
:102C1000F7FB00F06FF90028A2D1C8F80070BFF3ED
:102C20004F8FBFF36F8F9BE72046FFF7E9FB00F064
:102C300061F995E704ED00E02DE9F0410C4605004F
:102C400011D0C4B1FFF7D6FC174B5A696E682068E3
:102C5000911B471C17D02F689B6A9F4219D0964240
:102C600017D8012410E0502080F31188BFF34F8F54
:102C7000BFF36F8FFEE7502080F31188BFF34F8FB3
:102C8000BFF36F8FFEE70024FFF7D4FC2046BDE8BA
:102C9000F081884205D9401A20602846FFF71EFDC2
:102CA000F1E700202060DCE7300000202DE9FF5F25
:102CB0008346DDE90E87994616468A469000FFF75F
:102CC000D5FB05001AD05420FFF7D0FB040012D02A
:102CD00025630021CDE90241CDE900874B4632460C
:102CE00051465846FFF7ECFA2046FFF7D9F9012084
:102CF00004B0BDE8F09F2846FFF7B0FC4FF0FF306E
:102D0000F6E700000548C16919B1806B18B10020D1
:102D100070470120704702207047000030000020FB
:102D20002DE9F0412E4C0027A06B40B1206A401CD9
:102D30002062606A00B101273846BDE8F08166690B
:102D4000761C666113D16068006838B1502080F34A
:102D50001188BFF34F8FBFF36F8FFEE76068A168E4
:102D60006160A060A06A401CA062FFF725FB206B99
:102D7000DFF87080864209D36068006880B16068BF
:102D8000C068C568686886420DD220632068C06A42
:102D900000EB800158F821000128CAD90127C8E7B3
:102DA0004FF0FF30F1E7281DFFF7DEFBA86A18B1EE
:102DB00005F11800FFF7D8FBE86A0121A2698140FC
:102DC0001143A16100EB800108EB8100291DFFF791
:102DD00004FCE86A2168C96A8842CDD30127CBE7A1
:102DE000300000208801002070B504004FF0000181
:102DF00040D0214D2868844207D0502080F31188AC
:102E0000BFF34F8FBFF36F8FFEE7A06C38B1401E4A
:102E1000A064636CE26A9A422CD040B12AE0502050
:102E200080F31188BFF34F8FBFF36F8FFEE7201D34
:102E3000FFF79AFB114A012150B9E06A00EB8003C9
:102E400052F8233023B9AB6901FA00F08343AB6138
:102E5000606CE062C0F10700A061E06AAB6981408C
:102E60001943A96100EB800002EB8000211DFFF7F0
:102E7000B4FB0121084670BD30000020880100200D
:102E80002DE9F041C068C468ACB104F118000746F0
:102E9000FFF76AFB154DA86B0126A0B1394614480F
:102EA000FFF79BFBE06A2968C96A88421CD90120A8
:102EB0006E62BDE8F081502080F31188BFF34F8F20
:102EC000BFF36F8FFEE7201DFFF74EFBE16AAA6993
:102ED00006FA01F01043A86101EB81000449B439FE
:102EE00001EB8000211DDBE70020E2E7300000203D
:102EF0003C0200202DE9F0472C4D00242746A86B0A
:102F000038B1FFF777FBA86B401EA863A86B40B1F0
:102F100046E0502080F31188BFF34F8FBFF36F8FCF
:102F2000FEE72969224E0120D1B3A6F1B4098046FB
:102F30003068E8B1F068C46804F11800FFF714FBCA
:102F4000201DFFF711FBE06AAA6908FA00F111439E
:102F5000A96100EB800109EB8100211DFFF73DFB1A
:102F6000E06A2968C96A8842E2D3C5F82480DFE7AD
:102F70000CB1FFF721FA2C6A44B14646FFF7D0FEA8
:102F800000B16E62641EF9D100202862686A38B10F
:102F90000849012738070860BFF34F8FBFF36F8FD1
:102FA000FFF748FB3846BDE8F087000030000020FE
:102FB0003C02002004ED00E00500000004000000D9
:102FC00005000000040000001000000004000000E4
:102FD00060300008411E00080100000000000000F1
:102FE0008000000068300008E51C000801000000B7
:102FF000000000008000000058300008451E000856
:103000000100000000000000800000007030000897
:10301000B31E000801000000000000008000000056
:103020005C300008B11E0008010000000000000034
:1030300080000000010202030405060708090A0BCC
:103040000C0D0E0F10100000000000000000010227
:1030500003040607080900004C4344004E52460092
:103060004B657950616400004361726400000000A8
:1030700050617373000000009830000800000020C9
:10308000A00000002801000838310008A00000203E
:10309000C01700004401000800000000000000000C
:1030A0000000000000000000000000000000000020
:1030B00000000000000000000100000010000000FF
:1030C000000000000024F4000000000000000000E8
:1030D00000000000000000000000000000000000F0
:1030E00000000000000000000000000000000000E0
:1030F00000000000000000000000000000000000D0
:1031000000000000000000000000000000000000BF
:1031100000000000000000000000000000000000AF
:10312000AAAAAAAA000000000000000000000000F7
:08313000000000000000000097
:04000005080000ED02
:00000001FF
